:020000040800F2
:10000000A8120020C9030008490100084B0100089C
:1000100055010008570100085901000800000000C0
:100020000000000000000000000000005B0100086C
:100030005D010008000000005F0100086101000888
:10004000E3030008E3030008E3030008E3030008F8
:10005000E3030008E3030008E3030008E3030008E8
:10006000E3030008E3030008E3030008E3030008D8
:10007000E3030008E3030008E3030008E3030008C8
:10008000E3030008E3030008E3030008E3030008B8
:10009000E3030008E3030008E3030008E3030008A8
:1000A000E3030008E3030008E3030008E303000898
:1000B000E303000863010008EF3D0008E3030008C4
:1000C000E3030008E3030008E3030008E303000878
:1000D000E303000851270008E3030008E3030008D6
:1000E000E3030008E3030008E3030008E303000858
:1000F000E3030008E3030008E3030008E303000848
:10010000E3030008E3030008E3030008E303000837
:10011000E3030008E3030008E3030008E303000827
:10012000E3030008E3030008E3030008E303000817
:10013000DFF80CD004F0B2FE00480047DD270008CD
:10014000A812002030BF000070471AA004F066FF1C
:1001500000BFFEE7704770477047704770477047B1
:10016000704710B501211A4802F050F8194800688C
:10017000401C184908601848006828B117480068F2
:10018000401C1649086002E0002014490860144829
:100190000088401C12490880084600880A2807D1B8
:1001A00010480068401C0F49086000200C49088076
:1001B00010BD00000D0A486172644661756C745F81
:1001C00048616E646C6572204552524F520D0A00B0
:1001D0000004004070090020880900207C090020EC
:1001E00000000020040000200CB5002001900090C9
:1001F0006C48006840F480306A49086000BF694874
:10020000006800F4003000900198401C01900098B4
:1002100018B90198B0F5A06FF1D16248006800F4F8
:10022000003010B10120009001E000200090009803
:10023000012843D15C48006840F010005A4908602A
:100240000846006820F0030008600846006840F097
:1002500002000860534840685249486008464068B8
:1002600048600846406840F480604860084640683E
:1002700020F47C1048600846406840F4E81048606C
:100280000846006840F08070086000BF454800687C
:1002900000F000700028F9D04248406820F00300C8
:1002A000404948600846406840F00200486000BF8E
:1002B0003C48406800F00C000828F9D10CBD10B58E
:1002C000FFF792FF10BD10B53648006840F00100FE
:1002D000344908600846406834490840314948605C
:1002E00008460068324908402E4908600846006800
:1002F00020F4802008600846406820F4FE00486032
:100300004FF41F008860FFF7DAFF4FF000602949C3
:10031000086010BD10B5002100200022214B5B6851
:1003200003F00C0121B1042906D0082928D107E0E7
:10033000214B224C236027E01F4B204C236023E0FD
:10034000184B5B6803F47010164B5B6803F4803243
:10035000022303EB904022B9194B4343174C23600F
:100360000DE0104B5B6803F4003323B1144B43439F
:10037000124C236003E0104B4343104C236003E016
:100380000D4B0E4C236000BF00BF064B5B68C3F3F0
:1003900003130C4CE15C094B1B68CB40074C2360FA
:1003A00010BD000000100240002002400000FFF8D5
:1003B000FFFFF6FE08ED00E000127A0008000020C2
:1003C00000093D000C000020064880470648004711
:1003D000FEE7FEE7FEE7FEE7FEE7FEE7FEE7FEE7F5
:1003E000FEE7FEE7C702000831010008314901437A
:1003F000314A1160704770B5002100230F22C47884
:1004000004B32D4C246804F4E064C4F5E064210ACC
:10041000C1F10403CA40447804FA03F1847814401B
:1004200021430901254C0678A155047804F01F05E5
:100430000124AC4005786D11AD0005F1E025C5F84B
:10044000004109E0047804F01F050124AC401C4D74
:100450000678761145F8264070BD1A4A0A400243D4
:10046000154B1B1F1A60704739B1134A121D1268D1
:100470000243114B1B1D1A6006E00F4A121D126841
:1004800082430D4B1B1D1A607047042808D14FF0A2
:10049000E021096941F004014FF0E022116107E019
:1004A0004FF0E021096921F004014FF0E0221161D1
:1004B000704700000000FA050CED00E000E400E0E9
:1004C00080E100E080FFFF1F10B50446CC48844265
:1004D00008D10121042000F02DFB0021042000F0B0
:1004E00029FB46E0C748844208D10121082000F0DA
:1004F00021FB0021082000F01DFB3AE0C2488442A5
:1005000008D10121102000F015FB0021102000F07F
:1005100011FB2EE0BD48844208D10121202000F0CB
:1005200009FB0021202000F005FB22E0B8488442AE
:1005300008D10121402000F0FDFA0021402000F008
:10054000F9FA16E0B348844208D10121802000F076
:10055000F1FA0021802000F0EDFA0AE0AE48844272
:1005600007D10121801500F0E5FA0021A01500F067
:10057000E1FA10BD10B50121084600F0DBFA0021B8
:10058000012000F0D7FA10BD2DE9F0410246002508
:100590000026002000230024002791F803C00CF05F
:1005A0000F0591F803C00CF0100CBCF1000F03D044
:1005B00091F802C04CEA050591F800C0BCF1000FAB
:1005C00031D0146800202BE04FF0010C0CFA00F33E
:1005D000B1F800C00CEA03069E4220D183004FF020
:1005E0000F0C0CFA03F7BC4305FA03FC4CEA0404B5
:1005F00091F803C0BCF1280F06D14FF0010C0CFAA2
:1006000000FCC2F814C00AE091F803C0BCF1480F26
:1006100005D14FF0010C0CFA00FCC2F810C0401CD0
:100620000828D1D31460B1F800C0BCF1FF0F34DD4D
:10063000546800202EE000F1080C4FF0010808FA81
:100640000CF3B1F800C00CEA03069E4221D18300EE
:100650004FF00F0C0CFA03F7BC4305FA03FC4CEA0D
:10066000040491F803C0BCF1280F05D100F1080C77
:1006700008FA0CF8C2F8148091F803C0BCF1480FD6
:1006800007D100F1080C4FF0010808FA0CF8C2F885
:100690001080401C0828CED35460BDE8F0814FF68E
:1006A000FF710180022181700421C17070470246F0
:1006B000002093680B400BB1012000E00020704740
:1006C0000146886880B2704702460020D3680B401C
:1006D0000BB1012000E0002070470146C86880B2DD
:1006E000704701617047416170470AB1016100E0E4
:1006F00041617047C16070474FF480320A438261A4
:100700008161826182698269704702460020434BA1
:1007100018684FF68073184040EA021008433F4BB8
:10072000186070473E49C8617047F0B50A4600231B
:1007300000240021002500F00046B6F1004F02D150
:10074000364EF16901E0354E7168C0F3034583B25E
:1007500000F44016B6F5401F08D121F070612F4E0D
:10076000766826F070662D4F7E6012E000F48016E9
:10077000B6F5801F06D1032606FA05F4A14341F021
:10078000706106E0460D360103FA06F6B14341F00A
:10079000706122B1460D360103FA06F6314300F0CE
:1007A0000046B6F1004F02D11C4EF16101E01B4E34
:1007B0007160F0BD30B500228B071C0F0F2303FAC8
:1007C00004F2164B08338C1053F824309343134C27
:1007D00008348D1044F8253023468C1053F824300B
:1007E0008C07240F00FA04F423430C4C08348D10BA
:1007F00044F8253030BD0A49DC31086070470000FC
:1008000000080140000C01400010014000140140AC
:1008100000180140001C0140002001400000014080
:1008200000002042DF48006840F00100DD49086018
:1008300008464068DC490840DA49486008460068D4
:10084000DA490840D74908600846006820F480204B
:1008500008600846406820F4FE0048604FF41F001E
:1008600088607047CF49096821F48031CD4A116012
:100870001146096821F480211160B0F5803F03D052
:10088000B0F5802F0ED106E0C649096841F48031E9
:10089000C44A116007E0C349096841F4A021C14A74
:1008A000116000E000BF00BF704710B50146002294
:1008B000002300204A11012A02D1BA4C236806E025
:1008C000022A02D1B74C236A01E0B64C636A01F0F8
:1008D0001F02012494401C400CB1012000E00020C4
:1008E00010BD38B5002000900024002500BF312045
:1008F000FFF7DBFF05460098401C00900098B0F51C
:10090000A06F01D0002DF2D03120FFF7CEFF08B14B
:10091000012400E00024204638BD01460020A14A01
:10092000106820F0F80040EAC10010607047A0494C
:1009300008607047024600209A4B586820F47C10EB
:1009400042EA01031843974B58607047984908667C
:10095000704701460020934A506820F00300084386
:10096000506070478F48406800F00C0070470146A7
:1009700000208C4A506820F0F00008435060704717
:1009800001460020874A506820F4E0600843506028
:10099000704701460020834A506820F4605040EAC6
:1009A000C1005060704729B17E4A527A02437D4BA4
:1009B0005A7204E07B4A527A82437A4B5A727047E9
:1009C0007B49D8310860704701460020754A50685D
:1009D00020F440400843506070470021714A2032A3
:1009E0001170704A82F82010012802D004280AD120
:1009F00004E001216B4A2032117005E00521694AAB
:100A00002032117000E000BF00BF704769490860E4
:100A100070476449096A0143624A11627047654937
:100A200044390860704730B50021002200240023BB
:100A30005C4D6D6805F00C0121B1042905D0082931
:100A400023D105E05C4D056022E05B4D05601FE0B1
:100A5000544D6D6805F47012524D6D6805F4803484
:100A6000022505EB92421CB9544D554305600BE03D
:100A70004C4D6D6805F400351DB1504D5543056072
:100A800002E04D4D5543056002E04B4D056000BF4F
:100A900000BF444D6D6805F0F0010909484D6B5CDD
:100AA0000568DD4045603F4D6D6805F4E061090A69
:100AB000434D6B5C4568DD4085603A4D6D6805F4DB
:100AC0006051C90A3E4D6B5C4568DD40C560354DDF
:100AD0006D6805F44041890B3A4D6B5CC568B5FB08
:100AE000F3F5056130BD29B12E4A526902432D4B01
:100AF0005A6104E02B4A526982432A4B5A6170477B
:100B000029B1284A92690243264B9A6104E0254A9A
:100B100092698243234B9A61704729B1214AD26975
:100B20000243204BDA6104E01E4AD26982431D4B26
:100B3000DA61704729B11B4AD2680243194BDA6067
:100B400004E0184AD2688243164BDA60704729B134
:100B5000144A12690243134B1A6104E0114A1269E4
:100B60008243104B1A617047124940390860704740
:100B70000F49C86470470B49C87170470948406AFB
:100B800040F0807007494862704701460020054ADE
:100B900092680A400AB1012000E000207047014934
:100BA00088727047001002400000FFF8FFFFF6FE59
:100BB000000042428004424200127A0000093D00D7
:100BC0001C0000202C00002010B50446FB48844285
:100BD00009D101218803FFF7ADFF00214FF48040C8
:100BE000FFF7A8FF32E0F648844209D1012148040A
:100BF000FFF7ADFF00214FF40030FFF7A8FF25E01D
:100C0000F048844209D101218804FFF7A0FF0021A8
:100C10004FF48020FFF79BFF18E0EB48844209D196
:100C20000121C804FFF793FF00214FF40020FFF7D4
:100C30008EFF0BE0E548844208D101210805FFF74B
:100C400086FF00214FF48010FFF781FF10BD2DE9D2
:100C5000F04786B005460E460024A24600BFA146D6
:100C60000027B08900B100BF2F462C8A4CF6FF70D8
:100C70000440F08804432C82AC894EF6F310044003
:100C8000B08831890843718908430443AC81AC8A38
:100C90004FF6FF400440B0890443AC8201A8FFF73F
:100CA000C2FEC648874202D1DDF810A001E0DDF89F
:100CB0000CA0A88900F4004040B10AEBCA0000EB88
:100CC0000A1031684900B0FBF1F807E00AEBCA00EE
:100CD00000EB0A1031688900B0FBF1F86420B8FB22
:100CE000F0F004012009642101FB1089A88900F4B7
:100CF000004040B1322000EBC900B0FBF1F000F041
:100D00000700044308E0322000EB09106421B0FB27
:100D1000F1F000F00F0004432C8106B0BDE8F0872D
:100D20004FF41651016000218180C18001810C21A6
:100D3000418100218181704710B502460020108A50
:100D40004FF2FF0318400B884C8823438C882343C1
:100D5000CC8823431843108210BD002101804180BC
:100D60008180C180704721B1828942F40052828122
:100D700004E082894DF6FF731A4082817047F0B516
:100D80000346002400260025002040F66A17B942D9
:100D900000D100BF1846C1F3421401F01F0601271D
:100DA00007FA06F5012C01D10C3004E0022C01D128
:100DB000103000E014301AB107682F43076002E0DA
:100DC0000768AF430760F0BD1AB1838A0B43838283
:100DD00002E0838A8B4383827047028A4FF6F07366
:100DE0001A400282028A0A430282704782894FF2C5
:100DF000FF731A40828182890A438281704721B140
:100E0000828942F00202828104E082894FF6FD73FA
:100E10001A4082817047028A4FF6DF731A400282BD
:100E2000028A0A430282704721B1028A42F4804258
:100E3000028204E0028A4BF6FF731A400282704776
:100E4000C1F308028280704701468888C0F3080019
:100E50007047818941F0010181817047028BD2B2D4
:100E60000283028B42EA012202837047028B02F462
:100E70007F420283028B0A430283704721B1828A38
:100E800042F02002828204E0828A4FF6DF731A4029
:100E90008282704721B1828A42F01002828204E08D
:100EA000828A4FF6EF731A408282704721B1828A9C
:100EB00042F00802828204E0828A4FF6F7731A40F9
:100EC0008282704721B1828942F40042828103E02C
:100ED0008289C2F30E028281704721B1828A42F474
:100EE0000062828204E0828A4FF2FF731A4082829B
:100EF0007047828A4FF6FB731A408282828A0A43C5
:100F00008282704721B1828A42F00202828204E02A
:100F1000828A4FF6FD731A40828270470246002093
:100F2000B1F5007F00D100BF13880B400BB1012049
:100F300000E00020704701F40072B2F5007F00D19C
:100F400000BFCA430280704770B5024600240023E8
:100F50000025002040F66A16B14200D100BFC1F35F
:100F6000421501F01F03012606FA03F3012D02D1F9
:100F70009689334006E0022D02D1168A334001E003
:100F8000968A33400C12012606FA04F4168834407F
:100F900013B10CB1012000E0002070BD10B500229B
:100FA000002340F66A14A14200D100BF0A120124B6
:100FB0009440A3B2DC43048010BD0000003801401F
:100FC0000044004000480040004C004000500040F9
:100FD00010B50446FA48844208D101214015FFF7B4
:100FE000A9FD00216015FFF7A5FD17E0F548844233
:100FF00008D101210015FFF79DFD00212015FFF705
:1010000099FD0BE0F048844208D10121C803FFF7A5
:1010100091FD00214FF40040FFF78CFD10BD30B56D
:101020000246002000235068E84C20400D790C68EF
:1010300044EA0524204350609068E54C2040D1E903
:1010400002542C434D7944EA450420439060D06A11
:1010500020F470000C7C641EE4B2234340EA035089
:10106000D06230BD00210160017141718160C160B9
:1010700001210174704721B1826842F0010282604F
:1010800003E0826822F001028260704721B1826829
:1010900042F48072826003E0826822F4807282608F
:1010A000704710B50023CBB21AB144681C434460AA
:1010B00002E044689C43446010BD816841F008012F
:1010C00081607047014600208A6802F008020AB178
:1010D000012000E000207047816841F00401816038
:1010E0007047014600208A6802F004020AB101201C
:1010F00000E00020704721B1826842F4A0028260C3
:1011000003E0826822F4A00282607047014600205A
:101110008A6802F480020AB1012000E000207047D2
:1011200010B50A4600210023416821F46041531E96
:1011300041EA4331416010BD21B1426842F400628E
:10114000426003E0426822F4006242607047F0B5FA
:1011500004460D4600200021092D11DDE068A5F1AF
:101160000A0606EB4607072606FA07F18843A5F1AB
:101170000A0606EB460603FA06F10843E0600CE0B7
:10118000206905EB4507072606FA07F1884305EBBA
:10119000450603FA06F108432061072A0FDA606B5F
:1011A000561E06EB86071F2606FA07F18843561ED1
:1011B00006EB860605FA06F10843606322E00D2A75
:1011C0000FDA206BD61F06EB86071F2606FA07F1FB
:1011D0008843D61F06EB860605FA06F1084320630E
:1011E00010E0E06AA2F10D0606EB86071F2606FA5C
:1011F00007F18843A2F10D0606EB860605FA06F113
:101200000843E062F0BD21B1826842F4801282603E
:1012100003E0826822F48012826070470146C86C45
:1012200080B2704766484C300068704721B1426810
:1012300042F48062426003E0426822F480624260CD
:10124000704721B1426842F48052426003E0426834
:1012500022F48052426070470A460021816821F4DE
:10126000E04111438160704721B1826842F400423D
:10127000826003E0826822F400428260704721B1FC
:10128000826842F40212826003E0826822F4021251
:1012900082607047014600208A6802F400120AB199
:1012A000012000E000207047F0B5044615460020FC
:1012B00000220026092911DDE068A1F10A0707EBE9
:1012C000470C072707FA0CF29043A1F10A0707EB36
:1012D000470703FA07F21043E0600CE0206901EBD6
:1012E000410C072707FA0CF2904301EB410703FA80
:1012F00007F210432061A06BC0F30156EF1C06F10A
:10130000010CA7EB0C0707EB870C1F2707FA0CF261
:101310009043EF1C06F1010CA7EB0C0707EB8707C6
:1013200001FA07F21043A063F0BD10B50A46002190
:101330000023816B21F44011531E41EA0351816364
:1013400010BD08B5002300930090009B0B44009350
:10135000009B1A6008BD08B502460020009000926C
:1013600001F12800009B184400900098006880B2AA
:1013700008BD0A4600214168164B194011434160DF
:1013800070474162826270470A460021416821F03D
:101390001F0111434160704740B109490831096894
:1013A00041F40001064A0832116007E0044908319F
:1013B000096821F40001024A0832116070470000F8
:1013C0000024014000280140003C0140FFFEF0FFE6
:1013D000FDF7F1FFFFFD3FFF0246002013680B40C1
:1013E0000BB1012000E000207047CA430260704743
:1013F00070B502460020002300240B125568CEB2BF
:1014000005EA060415681D4015B10CB1012000E085
:10141000002070BD00220A12D34303607047000011
:1014200010B50446FE48844208D10121C014FFF7DC
:1014300081FB0021E014FFF77DFBC4E0B4F1804F95
:1014400008D101210846FFF782FB00210120FFF7A8
:101450007EFBB8E0F348844208D101210220FFF767
:1014600076FB00210220FFF772FBACE0EE488442DD
:1014700008D101210420FFF76AFB00210420FFF7B7
:1014800066FBA0E0E948844208D101210820FFF76B
:101490005EFB00210820FFF75AFB94E0E4488442F9
:1014A00008D101211020FFF752FB00211020FFF787
:1014B0004EFB88E0DF48844208D101212020FFF75D
:1014C00046FB00212020FFF742FB7CE0DA48844203
:1014D00008D101214014FFF72DFB00216014FFF714
:1014E00029FB70E0D548844209D10121C804FFF7E7
:1014F00021FB00214FF40020FFF71CFB63E0D048E4
:10150000844209D101210805FFF714FB00214FF4A3
:101510008010FFF70FFB56E0CA48844209D1012131
:101520004805FFF707FB00214FF40010FFF702FB0F
:1015300049E0C548844208D101214020FFF707FB5C
:1015400000214020FFF703FB3DE0C048844208D162
:1015500001218020FFF7FBFA00218020FFF7F7FA36
:1015600031E0BB48844208D101218015FFF7EFFA32
:101570000021A015FFF7EBFA25E0B648844209D117
:1015800001210804FFF7D6FA00214FF48030FFF75D
:10159000D1FA18E0B048844209D101214804FFF78C
:1015A000C9FA00214FF40030FFF7C4FA0BE0AB4852
:1015B000844208D101218804FFF7BCFA00214FF4CE
:1015C0008020FFF7B7FA10BD00220288944B9842A2
:1015D0000ED0994B98420BD0B0F1804F08D0914B70
:1015E000984205D0904B984202D0904B984204D13B
:1015F0004FF68F731A404B881A438D4B984207D091
:101600008C4B984204D04FF6FF431A40CB881A43C4
:1016100002808B8883850B880385814B98420BD091
:10162000854B984208D08B4B984205D08A4B984204
:1016300002D08A4B984201D10B7A03860123838220
:10164000704770B5002400220023058C4FF6FE760B
:1016500035400584028C8388048B4FF68F752C40AF
:10166000B51E2C400D882C43751E2A400D892A4337
:101670004D882A436A4DA8420BD06F4DA84208D02E
:10168000744DA84205D0744DA84202D0734DA842B3
:1016900013D14FF6F7752A404D892A434FF6FB7553
:1016A0002A408D882A434FF6FF652B404FF6FF55A1
:1016B0002B408D892B43CD892B4383800483CD8898
:1016C0008586028470BD70B5002400220023058C3D
:1016D0004FF6EF7635400584028C8388048B48F6FC
:1016E000FF752C404FF6FF452C400D884FF6FF76D6
:1016F00006EA05252C434FF6DF752A400D8906EAD8
:1017000005152A434D8806EA05152A43444DA8428B
:1017100002D0494DA8421DD14FF67F752A404D8910
:101720004FF6FF7606EA05152A434FF6BF752A40A5
:101730008D8806EA05152A434FF6FF352B404FF2F8
:10174000FF752B408D8906EA85052B43CD8906EA76
:1017500085052B4383800483CD880587028470BD73
:1017600070B5002400220023058C4FF6FF6635403B
:101770000584028C8388848B4FF68F752C404FF63E
:10178000FC752C400D882C434FF6FF552A400D89DF
:101790004FF6FF7606EA05252A434D8806EA052519
:1017A0002A431F4DA84202D0234DA8421DD14FF21B
:1017B000FF752A404D894FF6FF7606EA05252A4334
:1017C0004FF6FF352A408D8806EA05252A434EF656
:1017D000FF752B404DF6FF752B408D8906EA0515E8
:1017E0002B43CD8906EA05152B4383808483CD885E
:1017F0008587028470BD70B5002200230024058C0B
:101800004EF6FF7635400584038C8488828B48F63B
:10181000FF752A404FF6FF452A400D8820E0000062
:10182000002C01400004004000080040000C004073
:10183000001000400014004000340140004C014002
:10184000005001400054014000180040001C0040BE
:101850000020004000400140004401400048014099
:101860004FF6FF7606EA05252A434DF6FF752B4015
:101870000D8906EA05352B434D8806EA05352B43CD
:10188000FA4DA84202D0FA4DA84208D14BF6FF7596
:101890002C408D894FF6FF7606EA85152C4384800F
:1018A0008283CD88A0F84050038470BD828B4FF2B4
:1018B000FF331A408283828B4FF6FF7303EA0123C2
:1018C0001A4382837047F0B50C461546002200216A
:1018D0000026078C4EF6FF7C07EA0C070784828BF4
:1018E000018C4FF6FF7707EA043640F6FF473A408F
:1018F0004FF6FF7707EA05273A434FF6FF7707EAE7
:1019000003373A43D94FB8420ED0D94FB8420BD023
:10191000B0F1804F08D0D74FB84205D0D64FB8426B
:1019200002D0D64FB84206D14DF6FF77394046F483
:101930008057394305E047F6FF57394044F4805754
:10194000394382830184F0BD828B4FF6F3731A40D2
:101950008283828B0A4382837047F0B50C4615461A
:10196000002200210026078C4FF6FF6C07EA0C07C7
:101970000784828B018C4FF6FF7707EA04264FF627
:101980000C773A404FF6FF7707EA03172F433A43A5
:10199000B64FB8420ED0B64FB8420BD0B0F1804F20
:1019A00008D0B44FB84205D0B34FB84202D0B34FBD
:1019B000B84206D14FF6FF57394046F48077394395
:1019C00005E04FF2FF57394044F480773943828372
:1019D0000184F0BD028B4FF2FF331A400283028B69
:1019E0004FF6FF7303EA01231A4302837047F0B5F1
:1019F0000C461546002200210026078C4FF6EF7C8E
:101A000007EA0C070784028B018C4FF6FF7707EA81
:101A1000041640F6FF473A404FF6FF7707EA0337D0
:101A20003A434FF6FF7707EA05273A438F4FB8420C
:101A30000ED08F4FB8420BD0B0F1804F08D08D4FF1
:101A4000B84205D08C4FB84202D08C4FB84206D174
:101A50004FF6DF77394046F01007394305E04FF67F
:101A60005F77394044F01007394302830184F0BDA9
:101A7000028B4FF6F3731A400283028B0A430283F0
:101A80007047F0B50C46154600220021068C4FF633
:101A9000FE773E400684028B018C4FF60C76324076
:101AA0007E1C06EA03162E433243704EB0420ED01F
:101AB0006F4EB0420BD0B0F1804F08D06D4EB042A7
:101AC00005D06D4EB04202D06C4EB04206D14FF6FA
:101AD000FD76314044F00106314305E04FF6F576DE
:101AE000314044F00106314302830184F0BD70B5FA
:101AF00005460C465D4885420ED05D4885420BD0B8
:101B0000B5F1804F08D05B48854205D05A488542E0
:101B100002D05A48854200D100E000BF208850B969
:101B20002389A28861882846FFF7ABFFE188284611
:101B3000FFF79EFF25E0208804280AD12389A28888
:101B400061882846FFF753FFE1882846FFF742FFE8
:101B500017E0208808280AD12389A28861882846AE
:101B6000FFF7FBFEE1882846FFF7EEFE09E0238938
:101B7000A28861882846FFF7A6FEE1882846FFF77D
:101B800095FE70BD2DE9F04105460C460026012763
:101B9000608808B9022600E00026A088012801D14B
:101BA000022700E001272088A0B92389A288618844
:101BB0002846FFF766FFE1882846FFF759FF23898B
:101BC0003A4631462846FFF712FFE1882846FFF7DC
:101BD00001FF13E02389A28861882846FFF707FFE9
:101BE000E1882846FFF7F6FE23893A463146284623
:101BF000FFF747FFE1882846FFF73AFFBDE8F0818D
:101C00000A884B881A438B881A43CB881A430B895E
:101C10001A434B891A438B891A43A0F84420704712
:101C20004FF6FF71818000210180C18041800172E7
:101C300070470021018041808180C1800181418104
:101C40008181C18170470021018041800121818013
:101C50000021C18001817047002101804180818085
:101C6000C18001814181818170470000002C0140C9
:101C7000003401400004004000080040000C004017
:101C800021B1028842F00102028004E002884FF68E
:101C9000FE731A400280704731B1B0F8442042F41C
:101CA0000042A0F8442005E0B0F84420C2F30E0240
:101CB000A0F8442070471AB183890B43838102E066
:101CC00083898B43838170478182704741EA020395
:101CD000A0F8483070471AB183890B43838102E032
:101CE00083898B438381704701894FF6F8721140D5
:101CF000018170470A46002101894FF68F73194010
:101D000011430181704730B504460D4629462046EF
:101D1000FFF7F0FF208940F00700208130BD2DE95A
:101D2000F04104460D4616461F46602D06D13B463F
:101D3000012231462046FFF75AFE05E03B460122CC
:101D400031462046FFF79DFE29462046FFF7D2FF89
:101D5000208940F007002081BDE8F08130B50C46B5
:101D600000210189C9B24FF6FF7505EA0325154325
:101D700025432943018130BD2DE9F04105460E463A
:101D800017469846002443463A4631462846FFF710
:101D9000E5FF2C894FF6F870044044F007044FF635
:101DA0008F70044044F070042C81BDE8F081F0B5E0
:101DB00004460D4616461F463B46324629462046F7
:101DC000FFF7CCFF208940F480402081F0BD0185E1
:101DD000828270470A46002101884FF68F731940AE
:101DE000114301807047F0B50C4615461E46002190
:101DF000002200230189028B038C4FF6F8773940CB
:101E000021434FF6FC473A4040F201173A434FF660
:101E1000DD773B404FF6FF7707EA06172F433B433A
:101E2000018102830384F0BD0A460021018B4FF635
:101E30008F7319401143018370470A460021018BBB
:101E400048F6FF7319404FF6FF7303EA0223194364
:101E5000018370470A460021818B4FF68F7319402A
:101E60001143818370470A460021818B48F6FF7336
:101E700019404FF6FF7303EA022319438183704729
:101E800021B1028842F08002028004E002884FF60D
:101E90007F731A400280704721B1828842F00402A9
:101EA000828004E082884FF6FB731A40828070477C
:101EB00021B1828842F00802828004E082884FF6D5
:101EC000F7731A408280704721B1828842F0010284
:101ED000828004E082884FF6FE731A408280704749
:101EE0000A460021018B4FF6F77319401143018315
:101EF00070470A460021018B4FF2FF7319404FF6DD
:101F0000FF7303EA02231943018370470A46002145
:101F1000818B4FF6F77319401143818370470A464E
:101F20000021818B4FF2FF7319404FF6FF7303EAD4
:101F300002231943818370470A460021018B4FF623
:101F4000FB7319401143018370470A460021018B3E
:101F50004FF6FF3319404FF6FF7303EA022319438C
:101F6000018370470A460021818B4FF6FB731940AD
:101F70001143818370470A460021818B4FF6FF335E
:101F800019404FF6FF7303EA022319438183704718
:101F90000A460021018B4FF67F73194011430183DC
:101FA00070470A460021018BC1F30E014FF6FF7303
:101FB00003EA02231943018370470A460021818BFB
:101FC0004FF67F7319401143818370470A46002101
:101FD000818BC1F30E014FF6FF7303EA022319430D
:101FE000818370470A460021018C4FF6FD7319402A
:101FF0001143018470470A460021018C4FF6F773A4
:1020000019401143018470470A460021018C4FF6A4
:10201000DF7319404FF6FF7303EA0213194301847B
:1020200070470A460021018C4FF67F7319404FF626
:10203000FF7303EA02131943018470470A46002123
:10204000018C4FF6FF5319404FF6FF7303EA02234A
:102050001943018470470A460021018C4FF2FF7337
:1020600019404FF6FF7303EA0223194301847047B6
:102070000A460021018C4DF6FF7319404FF6FF739D
:1020800003EA023319430184704730B50023012469
:102090008C40A3B2048C9C430484048C02FA01F5A6
:1020A000ADB22C43048430BD30B5002304248C40F1
:1020B000A3B2048C9C430484048C02FA01F5ADB2F3
:1020C0002C43048430BD70B503460020002418461C
:1020D000183001258D40ACB21D8CA5431D8409B17B
:1020E000082909D100EB6100056825F0700505603D
:1020F0000568154305600EE00D1FC5F34E05284425
:10210000056825F4E045056005684FF6FF7606EAA8
:1021100002263543056070BD21B1028842F00202FB
:10212000028004E002884FF6FD731A400280704777
:1021300021B1028842F00402028004E002884FF6D6
:10214000FB731A400280704721B1828842F08002FE
:10215000828004E082884FF67F731A408280704745
:1021600002884FF6F7731A40028002880A43028001
:10217000704782884FF68F731A40828082880A43A4
:102180008280704702894FF6F8731A4002810289F3
:102190000A430281704702894FF67F731A40028119
:1021A00002890A43028170478184704781857047A4
:1021B000818670470187704781877047A0F840107B
:1021C000704702884FF6FF431A40028002880A4394
:1021D000028070470146888E70470146088F70471D
:1021E0000146888F70470146B1F8400070470146AC
:1021F000888C70470146088D704702460020138A7C
:102200000B400BB1012000E000207047CA4302825E
:10221000704730B50246002000230024158A05EAE5
:102220000103958905EA010413B10CB1012000E016
:10223000002030BDCA430282704700004FF0E02109
:10224000096921F004014FF0E0221161C21700EB8F
:102250005272C2F3C7022B4B1A701946097801EB70
:102260004102C2EBC1114FF6FF7202EAC101264AD8
:10227000118070470146234A12784A434FF0E02309
:102280005A6100229A611A46126942F001021A61EB
:1022900000BF4FF0E022106900F001021AB100F413
:1022A0008032002AF5D04FF0E022126922F00102BC
:1022B0004FF0E0231A6100229A6170470146124AEA
:1022C00012884A434FF0E0235A6100229A611A466D
:1022D000126942F001021A6100BF4FF0E02210695A
:1022E00000F001021AB100F48032002AF5D04FF05C
:1022F000E022126922F001024FF0E0231A6100226D
:102300009A6170473000002032000020B94A1188DD
:102310000A131303C1F3032203EB0223C1F30312D5
:1023200003EB021201F00F031A4491B24D22027026
:1023300043224270552282704322C2706122027190
:10234000702242713A2282714FF47A7291FBF2F25A
:1023500032B14FF47A7291FBF2F23032C27101E085
:102360002022C2714FF47A7291FBF2F302FB131236
:10237000642392FBF3F230320272642291FBF2F397
:1023800002FB13120A2392FBF3F2303242720A224A
:1023900091FBF2F302FB1312303282724B22C272B3
:1023A00062220273704770B50446934805682A4656
:1023B00092A1204602F042FE70BD934A0A400243B9
:1023C0008D4B08331A60704710B504462046FEF75F
:1023D0000DF810BDF8B504460D4617461E463046AA
:1023E000FFF7F2FF8DF800708DF801408DF8025074
:1023F00001208DF803006846FDF7FDFFF8BD00B52C
:10240000002082490861C86014204861002088616A
:10241000C8610846006840F001000860084640684E
:102420007B49084079494860084600687949084076
:10243000764908600846006820F480200860084655
:10244000406820F4FE0048600020886000214FF0C2
:102450000060FFF7B2FF00BD10B56748103000689C
:1024600040F004006449103108606848C06940F0D9
:1024700080506649C8616848406840F48070664989
:1024800048600846006840F004000860084600689C
:1024900040F002000860FDF755FE10BD5F48564948
:1024A0000C31086070475949896941F00101574A68
:1024B00091615B49496821F0E061594A51601146D8
:1024C000496841EA00615160704730B50446002513
:1024D000FFF795FF4D48006840F480304B49086095
:1024E00000BF4A480068400C0028FAD04FF48060D2
:1024F00046494860A01EC4B20846406840EA84408D
:1025000048600846406840F48030486045480068AC
:1025100040F03200434908603C48006840F0807059
:102520003A49086000BF39480068400E0028FAD0D8
:102530003648406840F002003449486005E03348BE
:102540004068C0F3870505F00305022DF7D130BDC3
:1025500001460A2091FBF0F200FB12100A2291FBC7
:10256000F2F240EA0210C0B27047014601F00F00DB
:102570000A1102EB820200EB4200C0B27047014632
:102580004FF47A7091FBF0F000034FF47A7291FBF4
:10259000F2F302FB1312642392FBF3F240EA0220EF
:1025A0001A4691FBF2F302FB13120A2392FBF3F299
:1025B00040EA02101A4691FBF2F302FB1312104399
:1025C00080B27047014608134FF47A725043C1F34A
:1025D000032202EBC20303EB021200EB8200C1F301
:1025E000031202EB820200EB420001F00F021044E2
:1025F00080B27047E0F7FF1F00ED00E04350552028
:1026000049443A253038580080FFFF1F001002402F
:102610000000FFF8FFFFF6FE007000400400FA051E
:10262000000001400020024000BF704700BF674A21
:10263000128802F04002002AF9D0C2B2634B1B1D7F
:102640001A80704710B586B00446012144F2050097
:10265000FEF756FA4FF40070ADF8140003208DF821
:10266000160018208DF8170005A95948FDF78CFFB2
:102670004FF48060ADF8140004208DF8170005A910
:102680005348FDF781FF25208DF8000003208DF8C9
:1026900001008DF8020001208DF803006846FDF767
:1026A000AAFE01940020ADF80800ADF80A00ADF8CC
:1026B0000C00ADF810000C20ADF80E0001A9434845
:1026C000FEF7C5FA012240F225514048FEF757FBBC
:1026D00001213E48FEF747FB06B010BD70B5044629
:1026E0000D4629462046FEF7ABFB00BF8021374848
:1026F000FEF714FC0028F9D070BD70B506460C46F4
:10270000002500BF615D3046FFF7E8FF681C85B219
:10271000605D0028F6D100BF40212C48FEF7FEFB8B
:102720000028F9D070BD10B5044621462748FEF7B1
:1027300087FB00BF80212548FEF7F0FB0028F9D079
:1027400000BF40212148FEF7E9FB0028F9D010BD69
:1027500010B540F225511D48FEF7F6FB10B31B489B
:10276000FEF772FBC4B21B48008800F40040C8B9F1
:102770001848008800F4804060B10A2C03D0002083
:102780001449088020E01348008840F400401149B3
:10279000088019E00D2C06D10E48008840F48040D6
:1027A0000C49088010E00B480088C0F30D000A496E
:1027B0000C5408480088401C0649088008460088D8
:1027C000C72801DD0020088010BD0000003801404E
:1027D0000008014038000020CC0900201FB5002669
:1027E00040F6FF794FF4A060FFF7EEFD4820FFF7B9
:1027F00025FD00F07BFC01F0E1F94FF4E130FFF73B
:1028000021FF01F0F5FD01F009FE054600F033FD62
:1028100000F0ADFD4FF49670FFF750FD00F089FD1C
:102820004721632001F0B6FA00F0A1FD012100204C
:1028300001F0E6FB002210465D4901F00DFD5DA0B0
:1028400002F0ECFBB3E001F004FA00215B48006801
:1028500000F078FB5A48007820B1002058490870F1
:1028600000F067FD5748006850B156480068564967
:102870000968884204D001205449087054490870FE
:102880005448007801280DD100205349086053496D
:1028900008604E4908704E490870002640F6FF79DE
:1028A0004C49087001F0AAFD04464948007830B14F
:1028B000B44204DD26464348006847490860204684
:1028C00002F028F8019002F050F807464FF0663207
:1028D000434B01F0ADFFCDE9020102F059F8414947
:1028E0000860B246504602F015F8019002F03DF83B
:1028F0004FF066323A4BCDE9020101F099FF0746ED
:1029000002F046F8384908603048007820B1324873
:10291000016836A002F082FB01F080FD05462C48DC
:10292000007830B14D4504DAA946264800682B49A5
:102930000860284601F0EEFF019002F016F84FF013
:102940006632274BCDE9020101F072FF074602F023
:102950001FF82A490860CB46584601F0DBFF01907A
:1029600002F003F807464FF066321D4B01F060FF9E
:10297000CDE9020102F00CF8214908601348007803
:1029800020B1164801681FA002F048FB21480068EA
:1029900008B9012000E000201E490860FA20FFF776
:1029A0008DFC084800680849086001F0D7F94AE73B
:1029B00000408F404444530D0A0000007409002079
:1029C0004800002098090020400000203C00002022
:1029D0003D000020B4090020A4090020A80900201F
:1029E00066664A3FB8090020C00900204D6178465C
:1029F0007265713A202575487A0D0A00BC090020DD
:102A0000C40900204D696E467265713A20257548EB
:102A10007A0D0A00800122422DE9F04781460C46DA
:102A200016461F46DDF820A0484601F0EDFE804620
:102A3000A8EB0705002F01DD2E20605500250CE0D6
:102A4000A8EB0700A84203DD19F80500605503E074
:102A500019F80510681C21546D1C4545F0DBBAF1CE
:102A6000000F0DD0A8EB0700B04203DDA05D803061
:102A7000A05505E0701C205C8030C1B2701C215450
:102A8000BDE8F08770B50546002405E0285D2028E4
:102A900001D130202855641C284601F0B5FEA04223
:102AA000F4D8002407E0FE48005D202802D1302041
:102AB000FB490855641CFA4801F0A6FEA042F2D872
:102AC00070BD1FB504460020019002900390F548A8
:102AD000007800283CD00020F24908700224F24916
:102AE0000878C11700EB91718910A0EB8101EE4AC3
:102AF00011701046007828B9EC48EDA10268E8484A
:102B000002F09CFAE8480078012805D1E948E8A1DC
:102B10000268E34802F092FAE3480078022805D1FF
:102B2000E548E6A10268DE4802F088FADE4800784F
:102B3000032805D1E2480288E2A1D94802F07EFAD2
:102B4000E1A20021282000F0A0FE0120E049087049
:102B5000002C7DD0D448007818BBDE4800780921CD
:102B600090FBF1F201FB1200DA490870CC4801F049
:102B700052FECE49086008460068CE49096888427E
:102B800003D9CC480068C9490860C848006810B932
:102B90000020C6490860C548C5A10268C04802F0C7
:102BA0004DFAC248C2A1026801A802F047FA01A882
:102BB000FFF768FFBC48007848B901200023009067
:102BC000C4480278C44901A8FFF726FF08E00020A6
:102BD00003460090BF480278BF4901A8FFF71CFFD9
:102BE000BD4A0221242000F069FEBCA202216C2013
:102BF00000F04BFEBAA20221002000F046FEAA48D7
:102C00000078012821D1B3480078092190FBF1F226
:102C100001FB1200AF490870A14801F0FCFDA54975
:102C2000086008460068B049884202D90846A149B0
:102C30000860A048006810B900209E4908609D48BF
:102C40009BA10268964802F0F9F99A4898A100E021
:102C5000D5E0026801A802F0F1F901A8FFF712FF20
:102C600091480078012808D1002300909948027803
:102C7000994901A8FFF7D0FE08E000200346009024
:102C800094480278944901A8FFF7C6FE924A0421AD
:102C9000242000F013FE91A204216C2000F0F5FD29
:102CA00092A20421002000F0F0FD7F480078022865
:102CB00022D188480078052190FBF1F201FB120037
:102CC00084490870764801F0A6FD7B4908600846F3
:102CD000006842F21071884202D9481E76490860A5
:102CE0007548006810B9002073490860724881A1D6
:102CF00002686B4802F0A2F96F487EA1026801A841
:102D000002F09CF901A8FFF7BDFE67480078022891
:102D100009D10120002300906E4802786E4901A875
:102D2000FFF77AFE08E00020034600906948027829
:102D3000694901A8FFF770FE0020674948710A46FB
:102D4000062100F0BBFD65A20621282000F09DFDB4
:102D500055480078032822D15E480078032190FB73
:102D6000F1F201FB12005B4908704D4801F053FD80
:102D70005349088008460088B0F57A7F02DD40F2AA
:102D8000E73008804E480088002802DC00204C49CB
:102D900008804B4802884BA1414802F04FF948484F
:102DA000028848A101A802F049F901A8FFF76AFECC
:102DB0003D480078032809D10120002300904548B0
:102DC0000278454901A8FFF727FE08E000200346E6
:102DD000009040480278404901A8FFF71DFE0020FE
:102DE0003D49C8700A460621402000F067FD42A216
:102DF0000621582000F049FD0120354908701FBD0B
:102E00007FB5044600200190029003902548007889
:102E100088B10020234908700224384824A10268A0
:102E20001F4802F00BF936A20021282000F02DFDEA
:102E3000012027490870002C66D026480078092117
:102E400090FBF1F201FB120022490870144801F0D6
:102E5000E2FC2A490860084600682349884202D9F2
:102E60000846264908602548006810B90020234913
:102E7000086022480EA10268094802F0DFF81F48E6
:102E80000BA1026801A802F0D9F801A8FFF7FAFD2A
:102E90000120002300900F4802780F4901A834E078
:102EA000940A002047000020450000204C0000202C
:102EB00025396400500000205400002025346400AF
:102EC000580000202533640020C9A8C6B5200000A2
:102ED00048000020460000209E0A0020487A00009A
:102EE0004D696E3A0000000000E1F5054D61783A49
:102EF00000000000253564004D73000060000020D4
:102F0000D5FDCFD2B2A800001BE0FFF785FD684ACF
:102F10000321142000F0D2FCAFF2400203215C2018
:102F200000F0B3FC6348006801F0F9FC054600229C
:102F300001F092F95F4800685F49086001205F492D
:102F400008707FBD70B504460D46102C52D2DFE8E4
:102F500004F0512F4B350823515151515129514003
:102F6000121D574857490978405C401C5449554A3E
:102F7000127888543EE0524852490978405C401C1F
:102F8000C1B24F484F4A1278815433E04D4800781F
:102F9000401C4C4908702DE04A480078401C4949C3
:102FA000087027E047480078401E4649087021E035
:102FB00044480078401E434908701BE0404841499E
:102FC0000978405C401EC1B23D483E4A12788154A7
:102FD00010E03B483B490978405C401EC1B238488C
:102FE000384A1278815405E037480078401C364949
:102FF000087000BF00BF324832490978405C2F2872
:1030000004D139202E492F4A127888542C482D4952
:103010000978405C3A2804D130202949294A12789D
:1030200088540C2C06D129480078401C2749087088
:1030300000F09DF90C2C01D0022C02D10120244972
:10304000087022480078022802DB00201F4908701F
:103050001E48007810B1012808D103E02046FFF790
:10306000CFFE03E02046FFF72CFD00BF00BF17484E
:103070000078012803D000201649087002E00120E2
:10308000144908701448007828B914A20021084691
:1030900000F0FBFB08E010480078012804D111A2E1
:1030A0000021084600F0F1FB70BD7047704700003A
:1030B0009E0A0020600000205C00002048000020E4
:1030C000940A002046000020450000204400002013
:1030D000470000205A0000209D0900203938353073
:1030E00000000000393835310000000008B501212A
:1030F0001020FDF705FD0120ADF8000002208DF83D
:10310000020010208DF8030069460948FDF73CFADB
:103110000220ADF8000069460548FDF735FA0221A6
:103120000348FDF7DEFA01210148FDF7DAFA08BD90
:103130000010014008B54CF25030FFF79BF8012118
:103140000820FDF7DDFC01211020FDF7D9FC4FF42C
:103150007870ADF8000010208DF8030003208DF882
:1031600002006946FA48FDF70FFA4FF4E050ADF857
:10317000000010208DF8030003208DF8020069463E
:10318000F448FDF701FA1020ADF8000048208DF852
:10319000030003208DF802006946ED48FDF7F4F9BD
:1031A00008BD0022EC4B1A60EC4BC3F89C210021B7
:1031B00016E00022E84B10331A6000F080021AB1CA
:1031C00001221B1F1A6003E00022E34B0C331A603C
:1031D0000122E14B10331A60420010464A1CD1B262
:1031E0000829E6DB70470022DB4B1A600122DB4B2B
:1031F000C3F89C21002116E00022D74B10331A603F
:1032000000F080021AB101221B1F1A6003E00022A5
:10321000D14B0C331A600122CF4B10331A6042009D
:1032200010464A1CD1B20829E6DB70470022CA4B7F
:103230001A600122C94BC3F89C21002115E000222D
:10324000C54B10331A6000F000421AB101221B1F57
:103250001A6003E00022C04B0C331A600122BE4BFF
:1032600010331A6040004A1CD1B22029E7DB01224A
:10327000B94B1A60704710B5FFF75CFF0020B649E4
:103280000860B649C1F898016420FFF717F80120DB
:10329000B149091D08601420FFF710F8E220FFF77C
:1032A00080FF0520FFF70AF82C20FFF77AFF0520A2
:1032B000FFF704F82E20FFF774FF0520FEF7FEFF4E
:1032C0002F20FFF76EFF0520FEF7F8FF2320FFF702
:1032D00068FF8120FFF765FF2820FFF762FFA2202B
:1032E000FFF75FFFC820FFF75CFFA020FFF759FF43
:1032F0004020FFF756FFAF20FFF753FF012097490B
:10330000C1F8940110BD30B505460C460020924925
:10331000086000BF00BF05F1B000FFF742FF1021B9
:1033200001EB1410FFF73DFF04F00F00FFF739FF2A
:1033300030BD30B5002088490860002411E000212C
:103340002046FFF7E0FF002507E0854901EBC501B6
:10335000085DFFF748FF681CC5B2802DF5DB601CD7
:10336000C4B2082CEBDB01207B49086030BD30B5CE
:1033700000207949086000240CE0002506E00020C8
:10338000774901EBC5010855681CC5B2802DF6DBF5
:10339000601CC4B2082CF0DB01206F490860FFF705
:1033A000C8FF30BDF0B5144600257F2801DC3F2959
:1033B00000DDF0BD0023684F3B600B46CF1701EBEB
:1033C0005777C7F3C702CF1701EB5777FF10A1EB71
:1033D000C707FEB20123B340DDB24CB1604B03EB33
:1033E000C0039B5C2B435E4F07EBC007BB5408E058
:1033F0005B4B03EBC0039B5CAB43594F07EBC00730
:10340000BB540123544F3B6000BFD2E72DE9F04786
:1034100006460F4690469946DDF820A034460CE05B
:103420003D4606E0524629462046FFF7BBFF681C92
:10343000C5B24D45F6DD601CC4B24445F0DDBDE8C3
:10344000F087F8B504460D4616461F4601203B4658
:103450002246294600902046FFF7D8FF01202B4640
:103460003246294600902046FFF7D0FF01203B4618
:103470003246394600902046FFF7C8FF01203B4600
:103480003246294600903046FFF7C0FFF8BDF0B540
:10349000144600257F2802DDA0F17F03D8B23F2922
:1034A00002DDA1F13F03D9B20B46CF1701EB5777ED
:1034B000C7F3C702CF1701EB5777FF10A1EBC70780
:1034C000FEB20123B340DDB24CB1254B03EBC00388
:1034D0009B5C2B43224F07EBC007BB5408E0204BFB
:1034E00003EBC0039B5CAB431D4F07EBC007BB5412
:1034F000F0BD38B505460C461A480078401C1949FD
:10350000087019480078A84203D118480078A042F2
:103510000DD000200090154800781030C3B212483A
:1035200002781248017810480078FFF76FFF0D48C5
:1035300000780F49097888421CDA0120009004F1D4
:103540001000C3B22A4621462846FFF75FFF26E057
:10355000000C014000100140948121420080214272
:10356000A80A00206C0900206E0900206F090020C5
:103570006D090020FA480078FA490978B1EB400F4C
:103580000ADA0020009004F11000C3B22A46214656
:103590002846FFF73BFF02E00020F2490870F2489E
:1035A0000570F248047038BD2DE9F04F80460C4696
:1035B00015461E46A346A5F12000C5B200273EE0F1
:1035C0000C2E07D105EB4500E94901EB800010F80E
:1035D000079004E0E74800EB051010F807904FF063
:1035E000000A26E009F0800028B121464046099AE9
:1035F000FFF7D8FE09E0099808B9012000E0002093
:10360000024621464046FFF7CDFE4FEA49604FEAA9
:103610001069601CC4B2A4EB0B00B04205D15C463B
:1036200008F1010000F0FF0806E00AF1010000F0D7
:10363000FF0ABAF1080FD5DB00BF781CC7B2B7424A
:10364000BEDBBDE8F08F2DE9F04F07460C4615466E
:103650001E46A3464FF0000931E095F800804FF078
:10366000000A23E008F0800028B13246214638469F
:10367000FFF70DFF08E00EB9012000E00020024630
:1036800021463846FFF703FF4FEA48604FEA1068CB
:10369000601CC4B2A4EB0B00102803D15C46781C5C
:1036A000C7B206E00AF1010000F0FF0ABAF1080F04
:1036B000D8DB00BF6D1C09F1010000F0FF09B9F172
:1036C000200FCADBBDE8F08F2DE9F04180460D46A2
:1036D00016461F467F2D01DDBDE8F0813F2E00DD3F
:1036E000FAE7002420E0387804EB0411A24A12F82B
:1036F0001110884216D1787804EB041102EB4101D5
:10370000497888420ED104EB0410114601EB4000C9
:10371000821C434631462846FFF795FF05F110000D
:10372000C5B203E0601CC4B23E2CDCD300BF00BFB6
:10373000D2E7F8B507460C4615461E4617E07A2C28
:1037400003DD002405F11000C5B23A2D04DD002090
:1037500004460546FFF70BFE0097327810232946F2
:103760002046FFF721FF04F10800C4B2761C307830
:103770000028E4D1F8BDF8B507460C4615461E46AC
:1037800017E07A2C03DD002405F11000C5B23A2DB4
:1037900004DD002004460546FFF7E9FD0097327876
:1037A0000C2329462046FFF7FFFE04F10800C4B2AF
:1037B000761C30780028E4D1F8BDF8B507460D46F0
:1037C00016461C461EE07A2D00DDF8BD3A2E00DDBF
:1037D000FBE720787F280ADD234632462946384613
:1037E000FFF772FFA41C05F11000C5B20AE00097B4
:1037F0002278102331462846FFF7D6FE05F108004F
:10380000C5B2641C20780028DDD100BFDDE72DE9BA
:10381000F04381460E4690461F467F2E01DDBDE8EF
:10382000F083B8F13F0F00DDF9E7002428E0002520
:1038300021E0385D05EB05114F4A12F8111088425E
:1038400017D1601C385C05EB051102EB410149788A
:1038500088420ED105EB0510114601EB4000821C99
:103860004B4641463046FFF7EEFE06F11000C6B269
:1038700003E0681CC5B23E2DDBD300BFA01CC4B260
:10388000385D0028D3D100BFC9E770B504460D46A6
:103890001646E806020EE1B233460120FFF78DFF1F
:1038A00070BDF0B504460D4616461F46E806020EEA
:1038B000E1B233463846FFF780FFF0BDF8B5074662
:1038C0000E461446002522E0605D80280CDB605D1A
:1038D0008038605500200090625DF006010E1023D4
:1038E0003846FFF761FE08E001200090625DF006B7
:1038F000010E10233846FFF757FE07F10800C7B244
:10390000782F02DD0027B01CC6B2681CC5B2605D0E
:103910000028D9D1F8BD02880B885A4002800A8855
:1039200003885A400A8002880B885A4002807047F8
:103930002DE9FF4F82B0BDF81010BDF80820881A9D
:10394000002801DB014600E0414289B20191BDF847
:103950001410BDF80C20881A00280FDB01460EE079
:103960006D0900206C0900206E0900206F090020FD
:1039700048590008BC5D000864000020414289B23B
:1039800000914FF00009BDF80400BDF80010884216
:103990000DDA4FF0010903A902A8FFF7BCFF05A942
:1039A00004A8FFF7B8FF694601A8FFF7B4FFBDF808
:1039B0001000BDF80810401A002801DD012001E0C8
:1039C0004FF0FF308246BDF81400BDF80C10401ACD
:1039D000002801DD012001E04FF0FF308346BDF8F3
:1039E0000840BDF80C60BDF800004700BDF80000BD
:1039F000BDF80410401A4FEA4008BDF80000BDF8B9
:103A00000410C1EB4005B9F1000F11D00BE0002DFF
:103A100001DA3D4401E05E444544E1B2F0B20F9A60
:103A2000FFF7C0FC5444BDF810008442EFD110E011
:103A30000BE0002D01DA3D4401E05E444544F1B263
:103A4000E0B20F9AFFF7AEFC5444BDF81000844278
:103A5000EFD106B0BDE8F08F2DE9F84105460E46DE
:103A600017469846079C33463A4631462846009406
:103A7000FFF75EFF43462A46314628460094FFF78B
:103A800057FF43463A46414628460094FFF750FF09
:103A900043463A46314638460094FFF749FFBDE8B1
:103AA000F8812DE9F04104460D4616461F46DDF823
:103AB0001880EA19D1B2A219D0B24246FFF772FCBF
:103AC000EA19D1B2A21BD0B24246FFF76BFCEA1B47
:103AD000D1B2A219D0B24246FFF764FCEA1BD1B2C0
:103AE000A21BD0B24246FFF75DFCAA19D1B2E2197F
:103AF000D0B24246FFF756FCAA19D1B2E21BD0B2AF
:103B00004246FFF74FFCAA1BD1B2E219D0B242469F
:103B1000FFF748FCAA1BD1B2E21BD0B24246FFF726
:103B200041FCBDE8F0812DE9FF4F81B08346174687
:103B30009946DDF838A000243D467800C0F1030620
:103B4000B9F1000F1FD01BE0A0460AE01FFA88F36E
:103B5000A2B2CDF800A058460299FFF7A2FF08F1E3
:103B60000108A845F2DD002E04DA042000FB046001
:103B7000861D04E0601B042101FB00666D1E641CB1
:103B8000AC42E1DD17E014E0ABB2A2B2CDF800A088
:103B900058460299FFF785FF002E04DA042000FB47
:103BA0000460861D04E0601B042101FB00666D1E9D
:103BB000641CAC42E8DD05B0BDE8F08F00B585B00F
:103BC00001210820FCF79CFF01210220FCF7A5FF42
:103BD00048208DF813004FF47840ADF81000012014
:103BE0008DF8120004A96248FCF7CEFC6148FDF78D
:103BF00017FC4720ADF8040040F2E730ADF80800AC
:103C00000020ADF80A00ADF8060001A95948FDF7FB
:103C1000DBFC012241215748FEF74DF801215548B0
:103C2000FEF72EF81D208DF8000001208DF803000E
:103C30008DF801008DF802006846FCF7DCFB05B04A
:103C400000BD4B4908310968C1F3CF2161F01F0065
:103C5000704700B5FFF7F5FFC2434749096882EA9C
:103C6000010010404549086043480260444800682C
:103C700020B9444800680A30434908603F4800685A
:103C800010B101203E4908603D48006890B33D48AE
:103C900000683D49096888422CD93A48006810F10B
:103CA0000A0F27D234480068042812D004DC012807
:103CB00007D0022819D108E008280ED0102814D106
:103CC0000FE001203149086013E002202F4908600D
:103CD0000FE003202D4908600BE004202B49086009
:103CE00007E005202949086003E000202749086013
:103CF00000BF00BF26480068B0F57A7F2BD340F2A2
:103D00009E20234908601C480068042812D004DC67
:103D1000012807D0022819D108E008280ED0102861
:103D200014D10FE00B201949086013E00C2017494B
:103D300008600FE00D20154908600BE00E201349C4
:103D4000086007E00F201149086003E000200F49D8
:103D5000086000BF00BF0D48006800BD0B48006848
:103D600020B100200649086008490860704700003B
:103D7000000C014000040040880900208409002054
:103D80008C0900207009002080090020740900209F
:103D90007C0900207FB505460C4601210420FCF774
:103DA000BCFEADF80850ADF804400020ADF80A00A4
:103DB000ADF8060001A95F48FDF706FC012241218C
:103DC0005C48FDF778FF1E208DF8000000208DF87C
:103DD000010003208DF8020001208DF803006846E1
:103DE000FCF709FB01215348FDF74AFF7FBD30B5C1
:103DF00091B051A103C9CDE90F0101214D48FEF752
:103E000008FA00287ED001214A48FEF713FA4C48F0
:103E100000780028F6D04B480068401C49490860EB
:103E20004948008800EB8000096888426AD8002071
:103E30004449086045480068401C444908604448BB
:103E4000006844490968414A126801FB020042497E
:103E500008600846006841490968884202D101208B
:103E60003F4908703C4800683C490968884202D9CB
:103E70000020364908603848006800F050FD0446CC
:103E8000002200F0E9F90DA93348006800F0DCFADF
:103E90000FAB07220421012000F08CFB0DAB0722A1
:103EA0000321012000F086FB0BA92E48006800F0DA
:103EB000CBFA0BAB07220921012000F07BFB09A9FB
:103EC0002948006800F0C0FA09AB07220A21012046
:103ED00000F070FB07A92548006800F0F3FA07AB73
:103EE00007220521012000F065FB05A92048006894
:103EF00000F0E8FA05AB07221146012000F05AFB5A
:103F000003A900E014E01B48006800F0DBFA03ABF3
:103F100007220621012000F04DFB01A91648006888
:103F200000F0D0FA01AB07220821012000F042FB8B
:103F300011B030BD00080040353030303030300036
:103F40005A00002090090020580000209409002009
:103F50004C00002054000020980900205000002050
:103F6000B4090020A4090020A8090020B8090020F5
:103F7000C0090020BC090020C40900200020C44959
:103F80000860C449C1F88C01C149083108600120AA
:103F9000086000200860BE49086001200860002019
:103FA0000860091F08600120086000200860704751
:103FB0000020B7490860B749C1F88C01B4490831FD
:103FC00008600120086000200860704708B50121E2
:103FD0001420FCF795FDFF20ADF8000003208DF8BC
:103FE000020010208DF803006946AB48FCF7CCFABC
:103FF0005820ADF800006946A848FCF7C5FA08BD8E
:1040000070B505460C46A6480570A6480470FFF733
:10401000DDFFA548A0490861A148007818B9002033
:10402000A249087005E09E480078012801D19F4907
:1040300008709C48007810B9FFF7BAFF0EE0994865
:10404000007801280AD19A4908609A49C1F8840188
:104050000020974908310860FFF790FF70BD2DE9F7
:10406000F04104460D468E48007850B9924A934B71
:104070002046294600F0DCFB064600F05DFCBDE86A
:10408000F08187480078012809D18D4A8D4B204660
:10409000294600F0CDFB064600F04EFCEFE700207D
:1040A000EDE72DE9F047074688461646994638461B
:1040B0004146FFF7D4FF054649EAC60484F0FF00F5
:1040C00044EA0040744908610120714908600020F9
:1040D0007049C1F890012C0E84F0FF0044EA0040C2
:1040E0006D49086101206A49086000206949C1F8EA
:1040F0009001C5F3074484F0FF0044EA004066499C
:10410000086101206249086000206249C1F89001FD
:10411000C5F3072484F0FF0044EA00405E490861CB
:1041200001205B49086000200860ECB284F0FF00C9
:1041300044EA0040584908610120554908600020C0
:1041400008600120091F086000205249C1F88C0155
:10415000BDE8F0872DE9F0470746884691469A4624
:1041600038464146FFF77BFF0646F5B200240FE0D4
:1041700045FA04F000F001004D491C3108600120AF
:104180004449C1F89001002041490860601CC4B254
:10419000082CEDDBC6F3072500240FE045FA04F0F8
:1041A00000F0010042491C31086001203949C1F882
:1041B0009001002036490860601CC4B2082CEDDB79
:1041C000C6F3074500240FE045FA04F000F00100B3
:1041D00037491C31086001202E49C1F890010020A8
:1041E0002B490860601CC4B2082CEDDB350E00249E
:1041F0000FE045FA04F000F001002D491C31086081
:1042000001202449C1F89001002021490860601C68
:10421000C4B2082CEDDB4AEAC900C5B200240FE0A5
:1042200045FA04F000F0010021491C31086001202A
:104230001849C1F89001002015490860601CC4B2FB
:10424000082CEDDB01201249091F086000201149EC
:10425000C1F88C01BDE8F08770B504460D461646DE
:104260001048007838B9114803783246204629466C
:10427000FFF717FF0AE00B480078012806D10B482A
:104280000378324620462946FFF764FF70BD0000E0
:10429000900121420000214200100140000801402D
:1042A0009D0900209E0900200000FFFF9C090020BE
:1042B000800122420000224295D626E80B2E414082
:1042C00079A7DFDE65DC374000B587B001214FF408
:1042D0000170FCF715FC0220ADF8180000208DF8E5
:1042E0001B0006A95548FCF74FF95548FCF770FE2E
:1042F0004FF40040FCF768FB00208DF809000490A3
:104300004FF4602003904FF4C020019001208DF8FD
:10431000140000208DF8080001A94948FCF77FFE31
:104320000723012211464648FCF711FF01214448AA
:10433000FCF7A1FE4248FCF7C0FE00BF4048FCF776
:10434000C1FE0028FAD13E48FCF7C6FE00BF3C483B
:10435000FCF7C7FE0028FAD107B000BD00B587B052
:1043600001214FF48260FCF7CBFB0420ADF818006C
:1043700000208DF81B0006A93048FCF705F93148EC
:10438000FCF726FE4FF40040FCF71EFB00208DF8E2
:10439000090004904FF4602003904FF4C020019076
:1043A00001208DF8140000208DF8080001A925488F
:1043B000FCF735FE0723012202212248FCF7C7FE45
:1043C00001212048FCF757FE1E48FCF776FE00BF8F
:1043D0001C48FCF777FE0028FAD11A48FCF77CFE4F
:1043E00000BF1848FCF77DFE0028FAD107B000BDD9
:1043F00010B5FFF769FFFFF7B1FF10BD10B5012140
:104400000F48FCF778FE00BF02210D48FCF7E4FFDF
:104410000028F9D00A48FCF701FF10BD10B50121B2
:104420000848FCF768FE00BF02210648FCF7D4FFED
:104430000028F9D00348FCF7F1FE10BD0008014048
:10444000002401400028014070B504460D46224674
:1044500024A1284600F0F2FD70BD3EB504460020C0
:1044600000900190029022461EA1684600F0E6FDF1
:1044700069461DA000F0D2FD3EBD3EB504460020B9
:10448000009001900290224618A1684600F0D6FDE7
:10449000694615A000F0C2FD3EBDFEB504460020F1
:1044A000009001900290204600F05FFA05462A46EF
:1044B0000B460FA1684600F0C1FD69460AA000F056
:1044C000ADFDFEBD2DE9F04105460C46284600F045
:1044D0004CFA064632460B4605A1204600F0AEFDDA
:1044E000BDE8F081257500002573000025780000E7
:1044F0002566000070B5054600240BE0295DBC4828
:10450000FCF79EFC00BF4021B948FCF707FD0128DD
:10451000F9D1641C032CF1DB70BD70B50546002495
:104520000BE0295DB248FCF78BFC00BF4021B0488E
:10453000FCF7F4FC0128F9D1641C022CF1DB70BDFE
:1045400070B5054600240BE0295DA948FCF778FC0E
:1045500000BF4021A648FCF7E1FC0128F9D1641C0A
:10456000022CF1DB70BD70B505460E4600240BE051
:10457000315D9F48FCF764FC00BF40219C48FCF77C
:10458000CDFC0128F9D1641CAC42F1DB70BD10B543
:1045900000240CE09748015D9548FCF751FC00BFF2
:1045A00040219348FCF7BAFC0128F9D1641C042C83
:1045B000F0DB10BD2DE9FC4104460D4616461F46B2
:1045C000002001900090012C02D0022C08D103E0C1
:1045D00001208DF8050003E002208DF8050000BFE2
:1045E00000BFA81E09282AD2DFE800F005090D1136
:1045F00015191D21250002208DF801001FE0032060
:104600008DF801001BE004208DF8010017E0052063
:104610008DF8010013E006208DF801000FE007205F
:104620008DF801000BE008208DF8010007E009205B
:104630008DF8010003E00A208DF8010000BF00BFE3
:104640006D48FFF757FF01A8FFF767FF6846FFF7C0
:1046500077FF39463046FFF786FFFFF798FFBDE842
:10466000FC817CB504460D46002001900090012C91
:1046700002D0022C08D103E001208DF8050003E0F0
:1046800002208DF8050000BF00BFA81E09282AD20D
:10469000DFE800F005090D1115191D212500022084
:1046A0008DF801001FE003208DF801001BE00420BD
:1046B0008DF8010017E005208DF8010013E00620B9
:1046C0008DF801000FE007208DF801000BE00820B5
:1046D0008DF8010007E009208DF8010003E00A20B1
:1046E0008DF8010000BF00BF4448FFF703FF01A899
:1046F000FFF713FF6846FFF723FFFFF748FF7CBD76
:104700002DE9FF4182B005460E461F460024A04613
:10471000002001900090012D02D0022D08D103E06D
:1047200001208DF8050003E002208DF8050000BF90
:1047300000BFB01E09282AD2DFE800F005090D11DC
:1047400015191D21250002208DF801001FE003200E
:104750008DF801001BE004208DF8010017E0052012
:104760008DF8010013E006208DF801000FE007200E
:104770008DF801000BE008208DF8010007E009200A
:104780008DF8010003E00A208DF8010000BF00BF92
:104790001B48FFF7AFFE01A8FFF7BFFE6846FFF713
:1047A000CFFE184801781248FCF74AFB15484178BB
:1047B0000F48FCF745FB002413E03FB104A810F8B4
:1047C000048041460A48FCF73BFB08E0C4F10300C3
:1047D00004A911F8008041460548FCF731FB601C34
:1047E000C4B2042CE9DBFFF7D2FE06B0BDE8F081CD
:1047F00000380140B5630008AF630008AC630008EF
:10480000B26300089F090020421C10F8011B002918
:10481000FBD1801A704770B5064600F023FC04688F
:1048200005460A220021304600F025F92C6070BDB3
:104830002DE9FE4F81EA030404F0004421F0004119
:1048400000944FF0000B23F0004350EA01045ED0C7
:1048500052EA03045BD0C3F30A54C1F30A552C4453
:10486000A4F2F3340194A0FB0254C1F3130141F408
:104870008011C3F3130343F4801301FB024400FBD4
:10488000034E840A970A44EA815447EA8357A4FBFB
:10489000076802958D0A05FB07854FEA932C04FBF8
:1048A0000C542705029D4FEA065847EA1637B5EB28
:1048B00008056EEB070C870E920E47EA811742EA55
:1048C0008312A7FB0201B6EB0B0164EB00042B0D76
:1048D00043EA0C335E1844EB1C50DA465146E7FBC2
:1048E0000201C5F313044FEA0B3343EA14534FEAB2
:1048F0000432019C43EA0603A4F10C040294009CD8
:10490000CDE900B400F035F903B0BDE8F08F002028
:104910000146F9E796230022114600F0EDB80EB5E6
:1049200040F2334102910021CDE900110A460B46C5
:1049300000F01FF903B000BDC1F30A5210B5C1F376
:10494000130140F2FF3341F480119A4201DA002052
:1049500010BD40F233439A42A2F2334203DC52428A
:1049600000F079F810BD904010BD00F0004230F02A
:1049700000400AD0C10D01F56071C0F3160042EA93
:104980000151C2084007114370470020014670479B
:1049900001F0004330B421F0004150EA010206D09A
:1049A0000A0DA2F56072C1F31301002A02DC30BCCB
:1049B00000207047440F44EAC104C100E01830BC35
:1049C00000EBC25000F08FB830B50B460146002016
:1049D0002022012409E021FA02F59D4205D303FAC1
:1049E00002F5491B04FA02F52844151EA2F1010242
:1049F000F1DC30BD2DE9F05F0546002092469B4674
:104A000088460646814640241BE0284641464746E4
:104A1000224600F020F853465A46C01A914110D35E
:104A200011461846224600F04BFA2D1A67EB010892
:104A30004F4622460120002100F042FA17EB000900
:104A40004E41201EA4F10104DFDC484631462A46CF
:104A50004346BDE8F09F202A04DB203A21FA02F009
:104A60000021704721FA02F3D040C2F120029140A8
:104A70000843194670472DE9F04791460F46804696
:104A80000446002614F8015B2DB100F03BFA0068E3
:104A9000405DC007F6D12B2D02D02D2D18D0641EFD
:104AA0004A463946204600F031FA27B13968A1421A
:104AB00001D1C7F8008071054FF002040BD54042C8
:104AC000002803DD00F0CEFA0460A007BDE8F087FF
:104AD00046F48066E4E70028F8DA00F0C3FA0460E0
:104AE0006FF00040F2E70029A8BF7047401C490062
:104AF00008BF20F00100704710B4B0FA80FC00FA43
:104B00000CF050EA010404BF10BC704749B1CCF16D
:104B1000200421FA04F411FA0CF118BF01212143F9
:104B20000843A3EB0C01CB1D4FEA00614FEA1020B4
:104B300042BF002010BC704700EBC3501044002956
:104B4000A4BF10BC7047401C490008BF20F0010002
:104B500010BC704710B5141E73F1000408DA401C35
:104B600041F1000192185B411A4301D120F001008C
:104B700010BD2DE9F04D92469B4611B1B1FA81F27C
:104B800002E0B0FA80F22032904600F099F9044633
:104B90000F4640EA0A0041EA0B0153465A460843D1
:104BA00013D0114653EA010019D0C8F14002504613
:104BB000FFF751FF05460E4650465946424600F063
:104BC0007FF9084305D0012004E020463946BDE8BE
:104BD000F08D0020054346EAE0762C4337430A98DF
:104BE0006305E40AA0EB08000022FD0A44EA4754EA
:104BF0000A3002D500200146E9E701051019694194
:104C0000DDE9084500196941BDE8F04DA2E72DE94D
:104C1000FE4F804681EA0300C00F0C46009021F051
:104C2000004123F00045B8EB0200A94105D24046FF
:104C3000214690461C460B46024623F00040104396
:104C400047D0270DC7F30A00C3F30A510290401A58
:104C5000019040286BDAC3F3130040F4801B0098E6
:104C6000924620B10023D2EB030A63EB0B0B0198B1
:104C70005946C0F14002504600F022F906460D4662
:104C800050465946019A00F02AF910EB080061419C
:104C9000002487EA115284EAE7731A4340D0009A4D
:104CA00062B3019A012A4FEA075215DC001B61EB3F
:104CB00002014FF0004202EA0752CDE90042001C17
:104CC00041F5801132462B46FFF753FF03B0BDE894
:104CD000F08F40462146F9E7001B61EB0201001C02
:104CE00041F5801300185B412018A2F5001747EB2F
:104CF000030140EAD570B6196D4111E06D084FEA25
:104D0000360645EAC0754FEA0752001B61EB020107
:104D1000001C41F5801149084FEA3000001951414B
:104D200032462B4603B0BDE8F04FFFF713BF0098A3
:104D3000012240000023D0EB020263EBE0730098F5
:104D400021464FEAE074B8EB000061EB0401E9E7AB
:104D500083F000435BE781F0004158E72DE9F04D17
:104D600081EA030404F0004B21F0004514464FF0A3
:104D7000000A23F0004150EA050220D054EA010263
:104D80001DD0C5F30A570246C5F31303C1F3130040
:104D9000C1F30A5640F4801543F48013A7EB0608CC
:104DA000101BD64608F2FD3873EB050002D308F15C
:104DB000010801E092185B41B8F1000F03DA00200E
:104DC0000146BDE8F08D00204FF480110646844670
:104DD0000EE0171B73EB050705D3121B63EB0503EE
:104DE00006434CEA010C49084FEA300092185B4137
:104DF00050EA0107EDD152EA030012D082EA040022
:104E000083EA0501084305D0101BAB4106D20122FD
:104E1000002306E000224FF0004302E06FF00102A1
:104E200053101AEB06004CEB085110EB0A0041EB53
:104E30000B01BDE8F04DFFF78DBEC1F30A52C1F37F
:104E4000130140F2FF3341F480119A4202DA00204C
:104E50000146704740F233439A42A2F2334202DCE9
:104E60005242FFF7F8BD00F02BB8000030B5041E29
:104E700071F1000404DB4FF00044404264EB010197
:104E8000141E73F1000405DB1C464FF00043524230
:104E900063EB0403994208BF904230BD064C074DB6
:104EA00006E0E06840F0010394E8070098471034FA
:104EB000AC42F6D3FBF740F9406400086064000898
:104EC000202A04DB203A00FA02F1002070479140CA
:104ED000C2F1200320FA03F3194390407047202ABF
:104EE00006DBCB17203A41FA02F043EAE07306E012
:104EF00041FA02F3D040C2F1200291400843194622
:104F000070470000004870473C6400082DE9F05FDE
:104F100082460078002715468B460AF10104B946FF
:104F2000302801D09DB113E014F8010B0127782837
:104F300003D0582801D045B10AE00DB1102D07D19A
:104F40000027102514F8010B02E0082500E00A25CF
:104F50000026B0460EE005FB080005FB06F1012720
:104F600001EB10461FFA80F8B6F5803F00D3B94632
:104F700014F8010B294600F018F80028EBDABBF111
:104F8000000F05D00FB1641E00E05446CBF800407E
:104F9000B9F1000F06D000F065F802210160C81ECB
:104FA000BDE8F09F48EA0640FAE73A2800D23038D8
:104FB00020F02002412A01D3A2F13700884201D318
:104FC0004FF0FF30704770B58C1810F8015B15F08A
:104FD000070301D110F8013B2A1106D110F8012B6B
:104FE00003E010F8016B01F8016B5B1EF9D12B0790
:104FF00005D40023521E0DD401F8013BFAE710F846
:10500000013BCB1A921C03E013F8015B01F8015B32
:10501000521EF9D5A142D8D3002070BD0FB4054B64
:1050200010B503A9044A029800F0F2F810BC5DF82C
:1050300014FB00002D260008340000200FB4084B9C
:1050400010B504A902AA039800F0E2F8044602A9E8
:10505000002000F074FC204610BC5DF814FB00003A
:105060003F59000800487047C809002002E008C8FE
:10507000121F08C1002AFAD170477047002001E0D2
:1050800001C1121F002AFBD1704700002DE9FF5F0C
:1050900082B00021DDE90430020DDDF840B00343A9
:1050A00018D044F61050A2F2FF3242431514119862
:1050B00001281FD0A5EB0B00401C5FEA000A4FF04F
:1050C00000064E4FDFF83891B046504615D5CAF16C
:1050D000000413E0119801244AA3012801D16FEACA
:1050E0000B010298119AC0E90031C0E9024206B0F2
:1050F000BDE8F09FCBF10000DFE704460021404A05
:10510000491842EB0450CDE9001012E0E00707D047
:1051100032463B4640464946FFF78AFB8046894671
:1051200032463B4610461946FFF782FB06460F46BD
:105130006410002CEAD1DDE90401DDE90023BAF1B5
:10514000000F06DAFFF774FB42464B46FFF770FB91
:1051500005E0FFF703FE42464B46FFF7FFFD04461E
:105160000E460022284BFFF781FE03D84FF0FF3098
:10517000014607E00022254B20463146FFF747FD58
:10518000FFF75BFE102409E0002C0ADB0A22002353
:10519000FFF730FC039B30321A55641E50EA0102BF
:1051A000F2D1641C039AC4F111031444119A012A28
:1051B00003D0012208430DD10AE0084304D00020A7
:1051C0004FF0110B119072E7A3EB0B056D1E0DE074
:1051D0005B4504DD4FF0000205F1010504E003DA50
:1051E0004FF00002A5F10105002AECD002981199B8
:1051F000C0E90231C0E9004579E700000000144031
:105200000000F03F300000000000F0430000E03FED
:105210002DE9FF4F95B09B468946064600250FE2D3
:10522000252877D100242746F84A0121059400E07B
:10523000044316F8013F203B01FA03F01042F7D176
:1052400030782A2811D06FF02F033078A0F1300287
:10525000092A16D8059A44F0020402EB820203EBF5
:1052600042021044761C0590EFE759F8042B059292
:10527000002A03DA504244F40054059044F002043A
:10528000761C30782E2816D116F8010F44F004044D
:105290002A280DD06FF02F023078A0F13003092BAF
:1052A00009D807EB870302EB4303C718761CF3E723
:1052B00059F8047B761C30786C280FD006DC4C281B
:1052C00017D068280DD06A2814D104E0742810D0B3
:1052D0007A280FD10DE044F400140AE044F480145D
:1052E00001E044F440147278824202D104F5801443
:1052F000761C761C307866280BD013DC582877D0C3
:1053000009DC002875D04528F6D04628F4D0472877
:105310001AD19DE118E0632835D0642879D065283A
:1053200012D195E1702873D008DC6728F1D0692884
:105330006FD06E280DD06F2806D1B5E073282CD021
:10534000752875D0782874D05A46179990476D1CE7
:1053500075E1C4F30250022809D003280DD0D9F812
:10536000001004280DD00D6009F1040967E1D9F897
:105370000010EA17C1E90052F6E7D9F800100D80D5
:10538000F2E70D70F0E719F8041B8DF8001000200B
:105390008DF80100EA46012003E059F804AB4FF014
:1053A000FF3061074FF0000102D40DE008F1010168
:1053B0008846B9420FDA8045F8DB1AF80810002950
:1053C000F4D108E008F1010188468142FADB1AF8BD
:1053D00008100029F6D105985B46A0EB0807214686
:1053E0003846179A00F094FA284400EB080507E0C5
:1053F0004DE029E10DE01AF8010B5A461799904744
:10540000B8F10108F7D25B4621463846179A13E1F6
:1054100042E00A220092C4F302524FF0000A022A2C
:1054200008D059F804CB032A4FEAEC710AD00DE0FA
:1054300029E02AE009F1070121F00702F2E802C1A0
:10544000914609E00FFA8CFC4FEAEC71042A03D173
:105450004FFA8CFC4FEAEC71002907DA0A4600216A
:10546000DCF1000C61EB02012D2202E0220504D5E3
:105470002B228DF80420012203E0E20701D0202234
:10548000F7E7904659E00A2102E010220DE01021D2
:105490004FF0000A00910BE010224FF0000A44F098
:1054A00004040827009203E008224FF0000A00924B
:1054B000C4F30252022A05D059F804CB0021032A72
:1054C00008D009E009F1070121F00702F2E802C162
:1054D000914605E01FFA8CFC042A01D10CF0FF0C68
:1054E0004FF00008220728D5702806D0009B83F0D3
:1054F000100353EA0A0305D00EE040228DF8042081
:10550000012208E05CEA010206D030228DF8042076
:105510008DF8050002229046009B83F0080353EAB1
:105520000A030AD15CEA010201D1620705D53022E3
:105530008DF804204FF001087F1E582804D034A0B5
:1055400003900EA802900DE036A0F9E7534660469E
:10555000009AFFF74FFA84460398825C0298401E37
:10556000029002705CEA0100F0D1029806A9081AC4
:1055700000F1200A600702D524F4803400E00127FE
:10558000574502DDA7EB0A0000E0002000EB0A010E
:10559000009005984144401A0590E00306D45B460C
:1055A0002146179A059800F0B3F90544002706E054
:1055B00001A85A46C05D179990476D1C7F1C47454E
:1055C000F6DBE0030CD55B462146179A059800F000
:1055D0009FF9054404E030205A46179990476D1C06
:1055E0000099481E00900029F5DC08E00298029915
:1055F0005A460078491C0291179990476D1CBAF1E0
:105600000001AAF1010AF1DC65E1000009280100AE
:105610003031323334353637383961626364656628
:1056200000000000303132333435363738394142EA
:10563000434445460000000000F058F90544761C3C
:10564000307800287FF4ECAD19B02846BDE8F08F23
:10565000620700D4062709F1070222F0070CFCE8D4
:105660000223E14603F000485FEA080C02D00FF283
:10567000702C0DE05FEA045C02D50FF2682C07E0A5
:105680005FEAC47C02D00FF2602C01E0AFF2700C34
:105690004FF0FF3823F00043CDF850C065280CD000
:1056A00006DC452809D046281DD047283DD13DE0DD
:1056B000662818D067287ED138E00021112F01DB41
:1056C000112000E0781CCDE9000106A90EA8FFF723
:1056D000DDFCDDE90F010E9A03910021009207F134
:1056E000010A04914DE04FF000400097CDE9011010
:1056F00006A90EA8FFF7CAFCDDE90F0203920E9B74
:1057000011990022DDF80CA00093049211B9791CC4
:1057100000EB010AB7EB0A0004D4C0F1FF3007F137
:10572000010A0490AAEB0700019044E0012F00DA7F
:1057300001270021112F01DD112000E03846CDE9BD
:10574000000106A90EA8FFF7A1FCDDE90F010E9AE2
:105750000391002104910092BA4621070CD40399C9
:10576000514500DA8A46BAF1010F05DD009AAAF127
:105770000101515C302908D0B84202DA10F1040F5F
:1057800006DA0121CDE9011015E0AAF10101E9E7EE
:10579000002805DC049901440491AAEB000102E011
:1057A000411C514500DD8A460499401A401C019075
:1057B0004FF000400290200704D40198504501DBCF
:1057C000CDF8048000208DF84F0002980DF14F07AE
:1057D000B0F1004F25D02B200E9002984FF0020818
:1057E00000280CDA404202902D200E9007E00A219A
:1057F0000298FFF7E9F83031029007F8011DB8F17F
:105800000001A8F10108F2DC02980028EFD1791E0E
:105810000E980870307800F0200040F0450007F83E
:10582000020D12A8C01B00F107081498007800B1FF
:10583000012000EB0A01019801EBE0710598414459
:10584000401A401E0590E00306D45B462146179A95
:10585000059800F05DF805441498007818B15A4690
:10586000179990476D1CE00324D55B462146179A93
:10587000059800F04DF805441CE00498002807DB6B
:10588000DDE90301884203DD0098405C179901E0DF
:10589000179930205A469047049805F10105401C9D
:1058A00004900198401E019004D12E205A46179969
:1058B00090476D1CBAF10001AAF1010ADDDC05E098
:1058C00017F8010B5A46179990476D1CB8F1000163
:1058D000A8F10108F4DC5B462146179A0598ABE66F
:1058E0002D0000002B000000200000002DE9F041F9
:1058F000044600251E461746880404D405E03946B0
:105900002020B0476D1C641EF9D52846BDE8F08103
:105910002DE9F041044600251E469046C80301D5F6
:10592000302700E02027880404D505E041463846AA
:10593000B0476D1C641EF9D52846BDE8F0810A68A1
:10594000531C0B6010707047000000000000000046
:1059500000000000000000003F40000000000000C8
:1059600000003000400030004000000009000BC083
:105970003D000BC03D00090018C024407FE02240DC
:1059800031800000180024C01B000D8032400180CF
:1059900003801C4027401C8007400040100060002E
:1059A00000000000000000000000000000001F8058
:1059B000204040200000402020401F8000000000C8
:1059C000090006001F800600090000000400040012
:1059D0003F80040004000000001000600000000090
:1059E00000000000040004000400040004000000A3
:1059F000000000400000000000000000002001C086
:105A000006003800400000001F8020402040204059
:105A10001F800000000010403FC000400000000058
:105A200018C021402240244018400000108020402F
:105A3000244024401B80000002000D0011003FC0E4
:105A4000014000003C80244024402440238000008A
:105A50001F80244024403440038000003000200098
:105A600027C03800200000001B8024402440244030
:105A70001B8000001C0022C0224022401F8000002A
:105A800000000000084000000000000000000000CE
:105A90000460000000000000000004000A00110083
:105AA00020804040090009000900090009000000A9
:105AB00000004040208011000A000400180020006F
:105AC00023402400180000001F8020402740294068
:105AD0001F400000004007C039000F0001C0004017
